:020000000029D5
:10000800A000030EA1000C1C1D280C10EE308E0061
:1000180085308F000F28A30A23080A3C031D1D28DA
:10002800A3011628A40A2408063C031D1D28A401C0
:0C0038001D28210E8300A00E200E0900E0
:10020000031383160F178F120F120F140313831685
:1002100085018701880106148614061503138316C9
:100220001614961416150313831615149514151524
:10023000031783168801890103138312850187013F
:100240008801A301A40103138316811303138312EE
:10025000101490101016901603138312EE308E00B7
:1002600085308F00031383128B170B178B150B1020
:10027000031383160C14031383120C1023080A169D
:100280008A1500200A128A11870024080A168A1586
:0A02900000200A128A1188003E299E
:1030000082073F3406345B344F3466346D347D348C
:0630100007347F346F3429
:04400E00D420FF3F7C
:00000001FF
