:02000000002AD4
:10000800A000030EA1000B1CA128061E0C28122814
:10001800AA0A2A08053C0319AA010B102A08031D7D
:1000280016282A282A08013C031D1B282C282A08E0
:10003800023C031D20282E282A08033C031D2528DE
:1000480067282A08043C031DA12890280B10A12822
:100058000B10A1280B1006183328A80AA128861807
:100068004A282808003C031D48283A282908003C4B
:10007800031D43280308A8000208A900A1280908AD
:10008800A800A80AA903A128A803A12806194E2890
:10009800A50AA1288619A1282508003C031D652862
:1000A80055282608003C031D60280908A500A50A54
:1000B8000508A600A60AA1280908A500A50AA603FE
:1000C800A128A503A1280B1006186C28AB0AA128A3
:1000D80086187028AB03A12806197528AD0AAF0A3F
:1000E800A1288619A1282D08003C031D8D287C28ED
:1000F8002E08003C031D87280208AD000108AE0049
:100108000C08AF00A1280908AD00AD0AAE03AF0383
:10011800A128AD03AF03A1280B1006189528B40A2F
:10012800A12886189928B403A12806199D28B20A7F
:10013800A1288619A128B203A1280B1DA8280B11F4
:10014800F0308100A70AB70A0C1CB0280C10EE305A
:100158008E0085308F00A30A210E8300A00E200E8A
:0201680009008C
:100200008A010A1482073F3406345B344F34663463
:0A0210006D347D3407347F346F3401
:10040000031383160F178F120F120F14031783167F
:1004100088018901031383168501071087100711CE
:100420008711071287120713880106148614061510
:1004300086150616031383161514951415159515B0
:10044000151603138312850187018801A301A401F6
:10045000A501A601A201A701B701A801A901AA014E
:10046000AB01AB0AAC01AD01AD0AAE01AF01AF0A01
:10047000B801B001B101B2010508B200B301B40185
:10048000B501031383168113031383160C1403138E
:1004900083120C1003138316161496141615961552
:1004A0001616031383168112811101148114011190
:1004B00003138312F0308100031383121014901081
:1004C0001016901603138312EE308E0085308F00C5
:1004D000031383128B170B178B168B150B110B1035
:1004E0002A08031D742A882A2A08013C031D792A38
:1004F0008E2A2A08023C031D7E2A942A2A08033CDD
:10050000031D832A9A2A2A08043C031DA52AA02A2F
:1005100005148510051185110512A52A05108514ED
:10052000051185110512A52A0510851005158511DF
:100530000512A52A05108510051185150512A52A95
:1005400005108510051185110516A223B023BE23C1
:10055000D32354246C247A242A08031DB02AC42AE5
:100560002A08013C031DB52A002B2A08023C031D62
:10057000BA2AC42A2A08033C031DBF2A002B2A08D2
:10058000043C031D782B3C2B221CC92AA21CD92A0F
:10059000F32AA21CCC2AE62A071487100711871118
:1005A00025080A128A1100210A128A118800A20A5B
:1005B000782B071087140711871126080A128A1151
:1005C00000210A128A118800A20A782B07108710CE
:1005D0000715871128080A128A1100210A128A11A8
:1005E0008800A20A782B07108710071187152908A1
:1005F0000A128A1100210A128A118800A201782B9E
:10060000221C052BA21C152B2F2BA21C082B222BE6
:1006100007148710071187112D080A128A1100216B
:100620000A128A118800A20A782B07108714071172
:1006300087112E080A128A1100210A128A118800D5
:10064000A20A782B07108710071587112B080A12AA
:100650008A1100210A128A118800A20A782B071039
:100660008710071187152C080A128A1100210A1217
:100670008A118800A201782B221C412BA21C512B2D
:100680006B2BA21C442B5E2B0714871007118711BC
:1006900032080A128A1100210A128A118800A20A5D
:1006A000782B071087140711871133080A128A1153
:1006B00000210A128A118800A20A782B07108710DD
:1006C0000715871134080A128A1100210A128A11AB
:1006D0008800A20A782B07108710071187153508A4
:1006E0000A128A1100210A128A118800A201782BAD
:1006F00027080A3C031D782BA7013708F43C031D8B
:100700008F2BB7013808013C031D872B8B2B071259
:100710008712B80A8F2B07168716B8038F2B250868
:10072000323C031D702A2608333C031D702A28081A
:10073000343C031D702A2908353C031D702A071715
:10074000B60A702A23080A3C031D0800A301A40A64
:100750002408063C031D0800A401A50AB0230800D4
:1007600025080A3C031D0800A501A60A2608063C28
:10077000031D0800A601A80ABE2308002908023CA0
:10078000031DC32BC92B28080A3C031D0800A80120
:10079000D12B2808043C031D0800A801A901AB0ABD
:1007A0000800A90A08002F08013C031DD82B0F2CB4
:1007B0002F08023C031DDD2B262C2F08033C031DB4
:1007C000E22B0F2C2F08043C031DE72B3D2C2F0898
:1007D000053C031DEC2B0F2C2F08063C031DF12BB1
:1007E0003D2C2F08073C031DF62B0F2C2F08083C2F
:1007F000031DFB2B0F2C2F08093C031D002C3D2C47
:100800002F080A3C031D052C0F2C2F080B3C031D41
:100810000A2C3D2C2F080C3C031D08000F2C2C0823
:10082000033C031D142C1A2C2B080A3C031D080042
:10083000AB01242C2B08023C031D0800AB01AB0AC2
:10084000AC01AD0AAF0A0800AC0A08002C08023C53
:10085000031D2B2C312C2B080A3C031D0800AB0177
:100860003B2C2B08093C031D0800AB01AB0AAC0173
:10087000AD0AAF0A0800AC0A08002C08033C031DAF
:10088000422C482C2B080A3C031D0800AB01522CBB
:100890002B08023C031D0800AB01AB0AAC01AD0AFA
:1008A000AF0A0800AC0A08002E08013C031D592CB1
:1008B000602C2D080A3C031D0800AD01AF016A2C15
:1008C0002D08033C031D0800AD01AD0AAF01AF0ABE
:1008D000AE010800AE0A080032080A3C031D0800F9
:1008E000B201B30A3308063C031D0800B301B40A81
:1008F0007A2408003508023C031D7F2C852C34081F
:100900000A3C031D0800B4018C2C3408043C031D70
:0C0910000800B401B5010800B50A080099
:04400E00D420FF3F7C
:00000001FF
