:02000000002AD4
:10000800A000030EA1000B1C8728061E0C2812282E
:10001800AA0A2A08053C0319AA010B102A08031D7D
:1000280016282A282A08013C031D1B282C282A08E0
:10003800023C031D20282E282A08033C031D2528DE
:1000480063282A08043C031D872876280B10872874
:100058000B1087280B1006183328A80A872886183B
:1000680049282808003C031D47283A282908003C4D
:10007800031D43280308A8000208A90087280908C7
:10008800A800A9038728A803872806194D28A50AC8
:100098008728861987282508003C031D61285428CD
:1000A8002608003C031D5D280908A5000508A600D0
:1000B80087280908A500A6038728A50387280B1009
:1000C80006186828AB0A872886186C28AB03872887
:1000D80006197128AD0AAF0A872886198728AD0343
:1000E800AF0387280B1006183328B20A872886180A
:1000F8004928B203872806194D28B00A8728861987
:100108008728B00387280B1D8D280B11F03081003C
:10011800A70A0C1C95280C10EE308E0085308F0035
:0C012800A30A210E8300A00E200E090087
:100200008A010A1482073F3406345B344F34663463
:0A0210006D347D3407347F346F3401
:10040000031383160F178F120F120F14031783167F
:1004100088018901031383168501071087100711CE
:10042000871188010614861406158615061603130F
:1004300083161514951415159515151603138312A7
:10044000850187018801A301A401A501A601A201DC
:10045000A701A801A901AA01AB01AB0AAC01AD013A
:10046000AD0AAE01AF01AF0A031383168113031364
:1004700083160C14031383120C1003138316161423
:1004800096141615961516160313831681128111EC
:1004900001148114011103138312F030810003133E
:1004A0008312101490101016901603138312EE305E
:1004B0008E0085308F00031383128B170B178B165A
:1004C0008B150B110B102A08031D672A7B2A2A089B
:1004D000013C031D6C2A812A2A08023C031D712A53
:1004E000872A2A08033C031D762A8D2A2A08043C01
:1004F000031D982A932A05148510051185110512EC
:10050000982A05108514051185110512982A0510E1
:100510008510051585110512982A051085100511FD
:1005200085150512982A05108510051185110516E7
:1005300071237F238D23A22323243B2449242A08CB
:10054000031DA32AB72A2A08013C031DA82AF32A5F
:100550002A08023C031DAD2AB72A2A08033C031DC2
:10056000B22AF32A2A08043C031D6B2B2F2B221CD2
:10057000BC2AA21CCC2AE62AA21CBF2AD92A07140C
:1005800087100711871125080A128A1100210A1203
:100590008A118800A20A6B2B071087140711871194
:1005A00026080A128A1100210A128A118800A20A5A
:1005B0006B2B071087100715871128080A128A115C
:1005C00000210A128A118800A20A6B2B07108710DB
:1005D0000711871529080A128A1100210A128A11A7
:1005E0008800A2016B2B221CF82AA21C082B222BAC
:1005F000A21CFB2A152B07148710071187112D0841
:100600000A128A1100210A128A118800A20A6B2B91
:1006100007108714071187112E080A128A1100216A
:100620000A128A118800A20A6B2B0710871007157F
:1006300087112B080A128A1100210A128A118800D8
:10064000A20A6B2B07108710071187152C080A12B6
:100650008A1100210A128A118800A2016B2B221C28
:10066000342BA21C442B5E2BA21C372B512B0714BE
:1006700087100711871130080A128A1100210A1207
:100680008A118800A20A6B2B0710871407118711A3
:1006900031080A128A1100210A128A118800A20A5E
:1006A0006B2B071087100715871132080A128A1161
:1006B00000210A128A118800A20A6B2B07108710EA
:1006C0000711871533080A128A1100210A128A11AC
:1006D0008800A2016B2B27080A3C031D6B2BA70186
:1006E000632A23080A3C031D0800A301A40A240866
:1006F000063C031D0800A401A50A7F230800250865
:100700000A3C031D0800A501A60A2608063C031D95
:100710000800A601A80A8D2308002908023C031D31
:10072000922B982B28080A3C031D0800A801A02B37
:100730002808043C031D0800A801A901AB0A080011
:10074000A90A08002F08013C031DA72BDE2B2F0848
:10075000023C031DAC2BF52B2F08033C031DB12BD2
:10076000DE2B2F08043C031DB62B0C2C2F08053C58
:10077000031DBB2BDE2B2F08063C031DC02B0C2CAE
:100780002F08073C031DC52BDE2B2F08083C031D3B
:10079000CA2BDE2B2F08093C031DCF2B0C2C2F0856
:1007A0000A3C031DD42BDE2B2F080B3C031DD92B39
:1007B0000C2C2F080C3C031D0800DE2B2C08033CDE
:1007C000031DE32BE92B2B080A3C031D0800AB019A
:1007D000F32B2B08023C031D0800AB01AB0AAC0154
:1007E000AD0AAF0A0800AC0A08002C08023C031D41
:1007F000FA2B002C2B080A3C031D0800AB010A2C25
:100800002B08093C031D0800AB01AB0AAC01AD0A83
:10081000AF0A0800AC0A08002C08033C031D112C89
:10082000172C2B080A3C031D0800AB01212C2B08B8
:10083000023C031D0800AB01AB0AAC01AD0AAF0AD4
:100840000800AC0A08002E08013C031D282C2F2CA0
:100850002D080A3C031D0800AD01AF01392C2D08FD
:10086000033C031D0800AD01AD0AAF01AF0AAE01A4
:100870000800AE0A080030080A3C031D0800B00159
:10088000B10A3108063C031D0800B101B20A49242F
:1008900008003308023C031D4E2C542C32080A3C3D
:1008A000031D0800B2015B2C3208043C031D080044
:0A08B000B201B3010800B30A08000A
:04400E00D420FF3F7C
:00000001FF
