:02000000002AD4
:10000800A000030EA1000B1C0A280B100B1D1028C2
:100018000B11F0308100A70A0C1C33280C10EE30AD
:100028008E0085308F00A30A23080A3C031D33285D
:10003800A3011E28A40A2408063C031D3328A40192
:100048002528A50A25080A3C031D3328A5012C28C4
:10005800A60A2608063C031D3328A6013328210ECC
:080068008300A00E200E090028
:100200008A010A1482073F3406345B344F34663463
:0A0210006D347D3407347F346F3401
:10040000031383160F178F120F120F14031783167F
:1004100088018901031383168501071087100711CE
:100420008711880106148614061503138316151404
:100430009514151503138312850187018801A30103
:10044000A401A501A601A201A7010313831681132C
:10045000031383160C14031383120C100313831657
:1004600016149614161503138316811281110114A4
:100470008114011103138312F030810003138312DE
:10048000101490101016901603138312EE308E0085
:1004900085308F00031383128B170B178B168B1568
:1004A0000B110B10221C572AA21C672A812AA21C9E
:1004B0005A2A742A071487100711871123080A1271
:1004C0008A1100210A128A118800A20A8E2A0710B6
:1004D00087140711871124080A128A1100210A12B1
:1004E0008A118800A20A8E2A071087100715871123
:1004F00025080A128A1100210A128A118800A20A0C
:100500008E2A071087100711871526080A128A11EC
:1005100000210A128A118800A2018E2A27080A3CAB
:08052000031D8E2AA701522AD7
:04400E00D420FF3F7C
:00000001FF
