:02000000002AD4
:10000800A000030EA1000B1CDC28061E0C281228D9
:10001800AA0A2A08053C0319AA010B102A08031D7D
:1000280016282A282A08013C031D1B282C282A08E0
:10003800023C031D20282E282A08033C031D2528DE
:1000480067282A08043C031DDC28A3280B10DC2899
:100058000B10DC280B1006183328A80ADC28861891
:100068004A282808003C031D48283A282908003C4B
:10007800031D43280308A8000208A900DC28090872
:10008800A800A80AA903DC28A803DC2806194E281A
:10009800A50ADC288619DC282508003C031D6528EC
:1000A80055282608003C031D60280908A500A50A54
:1000B8000508A600A60ADC280908A500A50AA603C3
:1000C800DC28A503DC280B1006186C28AB0ADC28F2
:1000D800861883282B08003C031D812873282C08C8
:1000E800003C031D7C280808AB000208AC00DC2893
:1000F8000908AB00AB0AAC03DC28AB03DC28061903
:100108008828AD0AAF0ADC288619DC282D08003CAF
:10011800031DA0288F282E08003C031D9A280208DA
:10012800AD000108AE000C08AF00DC280908AD00DE
:10013800AD0AAE03AF03DC28AD03AF03DC280B1018
:100148000618A828B40ADC288618BF283408003CFA
:10015800031DBD28AF283508003C031DB828030837
:10016800B4000208B500DC280908B400B40AB503D5
:10017800DC28B403DC280619C328B20ADC2886194F
:10018800DC283208003C031DDA28CA283308003C62
:10019800031DD5280908B200B20A0508B300B30A3E
:1001A800DC280908B200B20AB303DC28B203DC2851
:1001B8000B1DE3280B11F0308100A70AB70A0C1CAD
:1001C800EB280C10EE308E0085308F00A30A210E2C
:0801D8008300A00E200E0900B7
:100200008A010A1482073F3406345B344F34663463
:0A0210006D347D3407347F346F3401
:10040000031383160F178F120F120F14031783167F
:1004100088018901031383168501071087100711CE
:100420008711071287120713880106148614061510
:1004300086150616031383161514951415159515B0
:10044000151603138312850187018801A301A401F6
:10045000A501A601A201A701B701A801A901AA014E
:10046000AB01AB0AAC01AD01AD0AAE01AF01AF0A01
:10047000B801B001B101B201B20AB301B401B501D2
:10048000031383168113031383160C1403138312AF
:100490000C100313831616149614161596151616BB
:1004A00003138316811281110114811401110313A6
:1004B0008312F03081000313831210149010101671
:1004C000901603138312EE308E0085308F000313D5
:1004D00083128B170B178B168B150B110B102A0819
:1004E000031D732A872A2A08013C031D782A8D2AB6
:1004F0002A08023C031D7D2A932A2A08033C031D77
:10050000822A992A2A08043C031DA42A9F2A05143A
:100510008510051185110512A42A051085140511F1
:1005200085110512A42A05108510051585110512DF
:10053000A42A05108510051185150512A42A051099
:100540008510051185110516A923B723C523DA23C4
:100550005B24732481242A08031DAF2AC32A2A0896
:10056000013C031DB42AFF2A2A08023C031DB92AB4
:10057000C32A2A08033C031DBE2AFF2A2A08043C7A
:10058000031D772B3B2B221CC82AA21CD82AF22A37
:10059000A21CCB2AE52A071487100711871125080A
:1005A0000A128A1100210A128A118800A20A772BE6
:1005B000071087140711871126080A128A110021D3
:1005C0000A128A118800A20A772B071087100715D4
:1005D000871128080A128A1100210A128A1188003C
:1005E000A20A772B071087100711871529080A120E
:1005F0008A1100210A128A118800A201772B221C7D
:10060000042BA21C142B2E2BA21C072B212B07140E
:100610008710071187112D080A128A1100210A126A
:100620008A118800A20A772B0710871407118711F7
:100630002E080A128A1100210A128A118800A20AC1
:10064000772B07108710071587112B080A128A11BC
:1006500000210A128A118800A20A772B071087103E
:10066000071187152C080A128A1100210A128A1113
:100670008800A201772B221C402BA21C502B6A2B36
:10068000A21C432B5D2B071487100711871132081A
:100690000A128A1100210A128A118800A20A772BF5
:1006A000071087140711871133080A128A110021D5
:1006B0000A128A118800A20A772B071087100715E3
:1006C000871134080A128A1100210A128A1188003F
:1006D000A20A772B071087100711871535080A1211
:1006E0008A1100210A128A118800A201772B27089B
:1006F0000A3C031D772BA7013708F43C031D8E2B02
:10070000B7013808013C031D862B8A2B071287127C
:10071000B80A8E2B07168716B8038E2B2308303C99
:10072000031DE3282408313C031DE3282508323C3F
:10073000031D6F2A2608333C031D6F2A2808343C0A
:10074000031D6F2A2908353C031D6F2A0717B60AB7
:100750006F2A23080A3C031D0800A301A40A2408E9
:10076000063C031D0800A401A50AB72308002508BC
:100770000A3C031D0800A501A60A2608063C031D25
:100780000800A601A80AC52308002908023C031D89
:10079000CA2BD02B28080A3C031D0800A801D82B1F
:1007A0002808043C031D0800A801A901AB0A0800A1
:1007B000A90A08002F08013C031DDF2B162C2F0867
:1007C000023C031DE42B2D2C2F08033C031DE92BB9
:1007D000162C2F08043C031DEE2B442C2F08053C3F
:1007E000031DF32B162C2F08063C031DF82B442C5D
:1007F0002F08073C031DFD2B162C2F08083C031D5A
:10080000022C162C2F08093C031D072C442C2F0802
:100810000A3C031D0C2C162C2F080B3C031D112C1D
:10082000442C2F080C3C031D0800162C2C08033CFC
:10083000031D1B2C212C2B080A3C031D0800AB01B7
:100840002B2C2B08023C031D0800AB01AB0AAC01AA
:10085000AD0AAF0A0800AC0A08002C08023C031DD0
:10086000322C382C2B080A3C031D0800AB01422C0B
:100870002B08093C031D0800AB01AB0AAC01AD0A13
:10088000AF0A0800AC0A08002C08033C031D492CE1
:100890004F2C2B080A3C031D0800AB01592C2B08D8
:1008A000023C031D0800AB01AB0AAC01AD0AAF0A64
:1008B0000800AC0A08002E08013C031D602C672CC0
:1008C0002D080A3C031D0800AD01AF01712C2D0855
:1008D000033C031D0800AD01AD0AAF01AF0AAE0134
:1008E0000800AE0A080032080A3C031D0800B201E5
:1008F000B30A3308063C031D0800B301B40A81247F
:1009000008003508023C031D862C8C2C34080A3C58
:10091000031D0800B401932C3408043C031D080097
:0A092000B401B5010800B50A080093
:04400E00D420FF3F7C
:00000001FF
