:02000000002AD4
:10000800A000030EA1000B1C3128061E0C28132883
:10001800AA0A2A08053C031DAA010B1031282A0840
:10002800003C031D27282A08013C031D29282A080B
:10003800023C031D2B282A08033C031D2D282A08EF
:10004800043C031D2F280B1031280B1031280B10EE
:1000580031280B1031280B1031280B1D37280B11B4
:10006800F0308100A70A0C1C73280C10EE308E00AB
:1000780085308F00A30A23080A3C031D7328A301B7
:100088004528A40A2408063C031D7328A4014C280B
:10009800A50A25080A3C031D7328A5015328A60AAA
:1000A8002608063C031D7328A6015A282908023C85
:1000B800031D6528A80A28080A3C031D7328A801FF
:1000C8006C28A80A2808053C031D7328A8016C2879
:1000D800A90A2908033C031D7328A9017328210EC6
:0800E8008300A00E200E0900A8
:100200008A010A1482073F3406345B344F34663463
:0A0210006D347D3407347F346F3401
:10040000031383160F178F120F120F14031783167F
:1004100088018901031383168501071087100711CE
:10042000871188018901061486140615861506169B
:100430000313831615149514151595151516031326
:1004400083128501870188018901A301A401A50107
:10045000A601A201A701A801A901AA0103138316FD
:100460008113031383160C14031383120C1003134C
:10047000831616149614161596151616031383165E
:100480008112811101148114011103138312F030C0
:10049000810003138312101490101016901603138A
:1004A0008312EE308E0085308F00031383128B177A
:1004B0000B178B168B150B110B102A08003C031D14
:1004C000712A2A08013C031D772A2A08023C031DD1
:1004D0007D2A2A08033C031D832A2A08043C031DA5
:1004E000892A051485100511851105128F2A05101A
:1004F00085140511851105128F2A05108510051523
:10050000851105128F2A0510851005118515051214
:100510008F2A051085100511851105168F2A221CBA
:10052000942AA21CA42ABE2AA21C972AB12A071424
:1005300087100711871125080A128A1100210A1253
:100540008A118800A20ACB2A071087140711871185
:1005500026080A128A1100210A128A118800A20AAA
:10056000CB2A071087100715871128080A128A114D
:1005700000210A128A118800A20ACB2A07108710CC
:100580000711871529080A128A1100210A128A11F7
:100590008800A201CB2A27080A3C031DCB2AA70109
:0205A0005D2AD2
:04400E00D420FF3F7C
:00000001FF
