:02000000002AD4
:10000800A000030EA1000B1C5428061E0C28122861
:10001800AA0A2A08053C0319AA010B102A08031D7D
:1000280016282A282A08013C031D1B282C282A08E0
:10003800023C031D20282E282A08033C031D2528DE
:100048003F282A08043C031D542852280B10542822
:100058000B1054280B1006183328A80A54288618A1
:100068003728A803542806193B28A50A54288619B6
:100078005428A50354280B1006184428AB0A542802
:1000880086184828AB03542806194D28AD0AAF0A2C
:10009800542886195428AD03AF0354280B1054284C
:1000A8000B1D5A280B11F0308100A70A0C1C62287E
:1000B8000C10EE308E0085308F00A30A210E8300CD
:0600C800A00E200E09004D
:100200008A010A1482073F3406345B344F34663463
:0A0210006D347D3407347F346F3401
:10040000031383160F178F120F120F14031783167F
:1004100088018901031383168501071087100711CE
:10042000871188018901061486140615861506169B
:100430000313831615149514151595151516031326
:1004400083128501870188018901A301A401A50107
:10045000A601A201A701A801A901AA01AB01AC0153
:10046000AD01AE01AF01031383168113031383168D
:100470000C14031383120C10031383161614961412
:100480001615961516160313831681128111011481
:100490008114011103138312F030810003138312BE
:1004A000101490101016901603138312EE308E0065
:1004B00085308F00031383128B170B178B168B1548
:1004C0000B110B102A08031D662A7A2A2A08013C00
:1004D000031D6B2A802A2A08023C031D702A862AE3
:1004E0002A08033C031D752A8C2A2A08043C031D94
:1004F000972A922A05148510051185110512972A4D
:1005000005108514051185110512972A051085100F
:10051000051585110512972A0510851005118515F9
:100520000512972A0510851005118511051632232D
:1005300040234E236323A6242A08031DA02AB42A9D
:100540002A08013C031DA52AF02A2A08023C031DA3
:10055000AA2AB42A2A08033C031DAF2AF02A2A0833
:10056000043C031D2C2BB42A221CB92AA21CC92A24
:10057000E32AA21CBC2AD62A071487100711871168
:1005800025080A128A1100210A128A118800A20A7B
:100590002C2B071087140711871126080A128A11BD
:1005A00000210A128A118800A20A2C2B071087103A
:1005B0000715871128080A128A1100210A128A11C8
:1005C0008800A20A2C2B071087100711871529080D
:1005D0000A128A1100210A128A118800A2012C2B0A
:1005E000221CF52AA21C052B1F2BA21CF82A122B59
:1005F00007148710071187112D080A128A1100218C
:100600000A128A118800A20A2C2B071087140711DE
:1006100087112E080A128A1100210A128A118800F5
:10062000A20A2C2B07108710071587112B080A1216
:100630008A1100210A128A118800A20A2C2B0710A5
:100640008710071187152C080A128A1100210A1237
:100650008A118800A2012C2B27080A3C031D2C2B91
:10066000A701622A23080A3C031D0800A301A40A6B
:100670002408063C031D0800A401A50A4023080025
:1006800025080A3C031D0800A501A60A2608063C09
:10069000031D0800A601A80A4E2308002908023CF1
:1006A000031D532B592B28080A3C031D0800A801E1
:1006B000612B2808043C031D0800A801A901AB0A0E
:1006C0000800A90A08002F08031D672B9E2B2F087E
:1006D000013C031D6C2BB42B2F08023C031D712B16
:1006E000CA2B2F08033C031D762BE02B2F08043C5C
:1006F000031D7B2BF62B2F08053C031D802B0C2C98
:100700002F08063C031D852B222C2F08073C031DB8
:100710008A2B382C2F08083C031D8F2B4E2C2F08BA
:10072000093C031D942B642C2F080A3C031D992BB4
:100730007A2C2F080B3C031D0800902C2C08033C3E
:10074000031DA32BA92B2B080A3C031D0800AB019A
:10075000B22B2B08023C031D0800AB01AC01AD0A13
:10076000AF0A0800AC0A08002C08023C031DB92B94
:10077000BF2B2B080A3C031D0800AB01C82B2B081C
:10078000093C031D0800AB01AC01AD0AAF0A08002B
:10079000AC0A08002C08033C031DCF2BD52B2B08DB
:1007A0000A3C031D0800AB01DE2B2B08023C031D95
:1007B0000800AB01AC01AD0AAF0A0800AC0A0800A2
:1007C0002C08033C031DE52BEB2B2B080A3C031DD7
:1007D0000800AB01F42B2B08013C031D0800AB0102
:1007E000AC01AD0AAF0A0800AC0A08002C08033CB3
:1007F000031DFB2B012C2B080A3C031D0800AB0139
:100800000A2C2B08023C031D0800AB01AC01AD0A09
:10081000AF0A0800AC0A08002C08033C031D112C89
:10082000172C2B080A3C031D0800AB01202C2B08B9
:10083000013C031D0800AB01AC01AD0AAF0A080082
:10084000AC0A08002C08033C031D272C2D2C2B0878
:100850000A3C031D0800AB01362C2B08023C031D8B
:100860000800AB01AC01AD0AAF0A0800AC0A0800F1
:100870002C08033C031D3D2C432C2B080A3C031D74
:100880000800AB014C2C2B08023C031D0800AB01F7
:10089000AC01AD0AAF0A0800AC0A08002C08033C02
:1008A000031D532C592C2B080A3C031D0800AB01D7
:1008B000622C2B08023C031D0800AB01AC01AD0A01
:1008C000AF0A0800AC0A08002C08033C031D692C81
:1008D0006F2C2B080A3C031D0800AB01782C2B0859
:1008E000023C031D0800AB01AC01AD0AAF0A0800D1
:1008F000AC0A08002C08033C031D7F2C852C2B0818
:100900000A3C031D0800AB018E2C2B08023C031D82
:100910000800AB01AC01AD0AAF0A0800AC0A080040
:100920002C08033C031D952C9B2C2B080A3C031D13
:100930000800AB01A42C2B08023C031D0800AB01EE
:10094000AC01AD0AAF0A0800AC0A08002E08013C51
:10095000031DAB2CB22C2D080A3C031D0800AD0171
:10096000AF01BA2C2D08033C031D0800AD01AF01F7
:08097000AE010800AE0A080008
:04400E00D420FF3F7C
:00000001FF
