:02000000002AD4
:10000800A000030EA1000B1C6328061E0C28122852
:10001800AA0A2A08053C0319AA010B102A08031D7D
:1000280016282A282A08013C031D1B282C282A08E0
:10003800023C031D20282E282A08033C031D2528DE
:100048003F282A08043C031D632852280B10632804
:100058000B1063280B1006183328A80A6328861883
:100068003728A803632806193B28A50A6328861998
:100078006328A50363280B1006184428AB0A6328D5
:1000880086184828AB03632806194D28AD0AAF0A1D
:10009800632886196328AD03AF0363280B1006187D
:1000A8003328B20A632886183728B203632806194A
:1000B8003B28B00A632886196328B00363280B1D00
:1000C80069280B11F0308100A70A0C1C71280C104C
:1000D800EE308E0085308F00A30A210E8300A00E1B
:0400E800200E0900DD
:100200008A010A1482073F3406345B344F34663463
:0A0210006D347D3407347F346F3401
:10040000031383160F178F120F120F14031783167F
:1004100088018901031383168501071087100711CE
:10042000871188010614861406158615061603130F
:1004300083161514951415159515151603138312A7
:10044000850187018801A301A401A501A601A201DC
:10045000A701A801A901AA01AB01AB0AAC01AD013A
:10046000AD0AAE01AF01AF0A031383168113031364
:1004700083160C14031383120C1003138316161423
:1004800096141615961516160313831681128111EC
:1004900001148114011103138312F030810003133E
:1004A0008312101490101016901603138312EE305E
:1004B0008E0085308F00031383128B170B178B165A
:1004C0008B150B110B102A08031D672A7B2A2A089B
:1004D000013C031D6C2A812A2A08023C031D712A53
:1004E000872A2A08033C031D762A8D2A2A08043C01
:1004F000031D982A932A05148510051185110512EC
:10050000982A05108514051185110512982A0510E1
:100510008510051585110512982A051085100511FD
:1005200085150512982A05108510051185110516E7
:1005300071237F238D23A223F2240A2518252A085C
:10054000031DA32AB72A2A08013C031DA82AF32A5F
:100550002A08023C031DAD2AB72A2A08033C031DC2
:10056000B22AF32A2A08043C031D6B2B2F2B221CD2
:10057000BC2AA21CCC2AE62AA21CBF2AD92A07140C
:1005800087100711871125080A128A1100210A1203
:100590008A118800A20A6B2B071087140711871194
:1005A00026080A128A1100210A128A118800A20A5A
:1005B0006B2B071087100715871128080A128A115C
:1005C00000210A128A118800A20A6B2B07108710DB
:1005D0000711871529080A128A1100210A128A11A7
:1005E0008800A2016B2B221CF82AA21C082B222BAC
:1005F000A21CFB2A152B07148710071187112D0841
:100600000A128A1100210A128A118800A20A6B2B91
:1006100007108714071187112E080A128A1100216A
:100620000A128A118800A20A6B2B0710871007157F
:1006300087112B080A128A1100210A128A118800D8
:10064000A20A6B2B07108710071187152C080A12B6
:100650008A1100210A128A118800A2016B2B221C28
:10066000342BA21C442B5E2BA21C372B512B0714BE
:1006700087100711871130080A128A1100210A1207
:100680008A118800A20A6B2B0710871407118711A3
:1006900031080A128A1100210A128A118800A20A5E
:1006A0006B2B071087100715871132080A128A1161
:1006B00000210A128A118800A20A6B2B07108710EA
:1006C0000711871533080A128A1100210A128A11AC
:1006D0008800A2016B2B27080A3C031D6B2BA70186
:1006E000632A23080A3C031D0800A301A40A240866
:1006F000063C031D0800A401A50A7F230800250865
:100700000A3C031D0800A501A60A2608063C031D95
:100710000800A601A80A8D2308002908023C031D31
:10072000922B982B28080A3C031D0800A801A02B37
:100730002808043C031D0800A801A901AB0A080011
:10074000A90A08002F08013C031DA72BDE2B2F0848
:10075000023C031DAC2BF52B2F08033C031DB12BD2
:100760000C2C2F08043C031DB62B232C2F08053C12
:10077000031DBB2B3A2C2F08063C031DC02B512C0C
:100780002F08073C031DC52B682C2F08083C031DB0
:10079000CA2B7F2C2F08093C031DCF2B962C2F082A
:1007A0000A3C031DD42BAD2C2F080B3C031DD92B69
:1007B000C42C2F080C3C031D0800DB2C2C08033C28
:1007C000031DE32BE92B2B080A3C031D0800AB019A
:1007D000F32B2B08023C031D0800AB01AB0AAC0154
:1007E000AD0AAF0A0800AC0A08002C08023C031D41
:1007F000FA2B002C2B080A3C031D0800AB010A2C25
:100800002B08093C031D0800AB01AB0AAC01AD0A83
:10081000AF0A0800AC0A08002C08033C031D112C89
:10082000172C2B080A3C031D0800AB01212C2B08B8
:10083000023C031D0800AB01AB0AAC01AD0AAF0AD4
:100840000800AC0A08002C08033C031D282C2E2CA1
:100850002B080A3C031D0800AB01382C2B08013C77
:10086000031D0800AB01AB0AAC01AD0AAF0A0800DA
:10087000AC0A08002C08033C031D3F2C452C2B0818
:100880000A3C031D0800AB014F2C2B08023C031D42
:100890000800AB01AB0AAC01AD0AAF0A0800AC0A14
:1008A00008002C08033C031D562C5C2C2B080A3C2A
:1008B000031D0800AB01662C2B08013C031D08003A
:1008C000AB01AB0AAC01AD0AAF0A0800AC0A0800E4
:1008D0002C08033C031D6D2C732C2B080A3C031DB4
:1008E0000800AB017D2C2B08023C031D0800AB0166
:1008F000AB0AAC01AD0AAF0A0800AC0A08002C082C
:10090000033C031D842C8A2C2B080A3C031D080081
:10091000AB01942C2B08023C031D0800AB01AB0A71
:10092000AC01AD0AAF0A0800AC0A08002C08033C71
:10093000031D9B2CA12C2B080A3C031D0800AB01B6
:10094000AB2C2B08013C031D0800AB01AB0AAC012A
:10095000AD0AAF0A0800AC0A08002C08033C031DCE
:10096000B22CB82C2B080A3C031D0800AB01C22C8A
:100970002B08023C031D0800AB01AB0AAC01AD0A19
:10098000AF0A0800AC0A08002C08033C031DC92C60
:10099000CF2C2B080A3C031D0800AB01D92C2B08D7
:1009A000013C031D0800AB01AB0AAC01AD0AAF0A64
:1009B0000800AC0A08002C08033C031DE02CE62CC0
:1009C0002B080A3C031D0800AB01F02C2B08023C4D
:1009D000031D0800AB01AB0AAC01AD0AAF0A080069
:1009E000AC0A08002E08013C031DF72CFE2C2D0834
:1009F0000A3C031D0800AD01AF01082D2D08033C82
:100A0000031D0800AD01AD0AAF01AF0AAE01080039
:100A1000AE0A080030080A3C031D0800B001B10A04
:100A20003108063C031D0800B101B20A1825080070
:100A30003308023C031D1D2D232D32080A3C031DE3
:100A40000800B2012A2D3208043C031D0800B2013F
:080A5000B3010800B30A08001D
:04400E00D420FF3F7C
:00000001FF
