:02000000002AD4
:10000800A000030EA1000B1C5428061E0C28122861
:10001800AA0A2A08053C0319AA010B102A08031D7D
:1000280016282A282A08013C031D1B282C282A08E0
:10003800023C031D20282E282A08033C031D2528DE
:100048003F282A08043C031D542852280B10542822
:100058000B1054280B1006183328A80A54288618A1
:100068003728A803542806193B28A50A54288619B6
:100078005428A50354280B1006184428AB0A542802
:1000880086184828AB03542806194D28AD0AAF0A2C
:10009800542886195428AD03AF0354280B1054284C
:1000A8000B1D5A280B11F0308100A70A0C1C62287E
:1000B8000C10EE308E0085308F00A30A210E8300CD
:0600C800A00E200E09004D
:100200008A010A1482073F3406345B344F34663463
:0A0210006D347D3407347F346F3401
:10040000031383160F178F120F120F14031783167F
:1004100088018901031383168501071087100711CE
:10042000871188018901061486140615861506169B
:100430000313831615149514151595151516031326
:1004400083128501870188018901A301A401A50107
:10045000A601A201A701A801A901AA01AB01AB0A4B
:10046000AC01AD01AD0AAE01AF01AF0A03138316B3
:100470008113031383160C14031383120C1003133C
:10048000831616149614161596151616031383164E
:100490008112811101148114011103138312F030B0
:1004A000810003138312101490101016901603137A
:1004B0008312EE308E0085308F00031383128B176A
:1004C0000B178B168B150B110B102A08031D692AAD
:1004D0007D2A2A08013C031D6E2A832A2A08023C31
:1004E000031D732A892A2A08033C031D782A8F2AB0
:1004F0002A08043C031D9A2A952A05148510051123
:10050000851105129A2A0510851405118511051209
:100510009A2A051085100515851105129A2A0510CD
:1005200085100511851505129A2A051085100511EB
:10053000851105163523432351236623B6242A0843
:10054000031DA32AB72A2A08013C031DA82AF32A5F
:100550002A08023C031DAD2AB72A2A08033C031DC2
:10056000B22AF32A2A08043C031D2F2BB72A221C87
:10057000BC2AA21CCC2AE62AA21CBF2AD92A07140C
:1005800087100711871125080A128A1100210A1203
:100590008A118800A20A2F2B0710871407118711D0
:1005A00026080A128A1100210A128A118800A20A5A
:1005B0002F2B071087100715871128080A128A1198
:1005C00000210A128A118800A20A2F2B0710871017
:1005D0000711871529080A128A1100210A128A11A7
:1005E0008800A2012F2B221CF82AA21C082B222BE8
:1005F000A21CFB2A152B07148710071187112D0841
:100600000A128A1100210A128A118800A20A2F2BCD
:1006100007108714071187112E080A128A1100216A
:100620000A128A118800A20A2F2B071087100715BB
:1006300087112B080A128A1100210A128A118800D8
:10064000A20A2F2B07108710071187152C080A12F2
:100650008A1100210A128A118800A2012F2B270873
:100660000A3C031D2F2BA701652A23080A3C031D02
:100670000800A301A40A2408063C031D0800A401E5
:10068000A50A4323080025080A3C031D0800A5010C
:10069000A60A2608063C031D0800A601A80A512345
:1006A00008002908023C031D562B5C2B28080A3C35
:1006B000031D0800A801642B2808043C031D080042
:1006C000A801A901AB0A0800A90A08002F08013CEB
:1006D000031D6B2BA22B2F08023C031D702BB92B83
:1006E0002F08033C031D752BD02B2F08043C031D42
:1006F0007A2BE72B2F08053C031D7F2BFE2B2F08A1
:10070000063C031D842B152C2F08073C031D892B49
:100710002C2C2F08083C031D8E2B432C2F08093C42
:10072000031D932B5A2C2F080A3C031D982B712C68
:100730002F080B3C031D9D2B882C2F080C3C031D00
:1007400008009F2C2C08033C031DA72BAD2B2B0866
:100750000A3C031D0800AB01B72B2B08023C031D0C
:100760000800AB01AB0AAC01AD0AAF0A0800AC0A45
:1007700008002C08023C031DBE2BC42B2B080A3C8E
:10078000031D0800AB01CE2B2B08093C031D0800FC
:10079000AB01AB0AAC01AD0AAF0A0800AC0A080015
:1007A0002C08033C031DD52BDB2B2B080A3C031D17
:1007B0000800AB01E52B2B08023C031D0800AB0130
:1007C000AB0AAC01AD0AAF0A0800AC0A08002C085D
:1007D000033C031DEC2BF22B2B080A3C031D0800E5
:1007E000AB01FC2B2B08013C031D0800AB01AB0A3D
:1007F000AC01AD0AAF0A0800AC0A08002C08033CA3
:10080000031D032C092C2B080A3C031D0800AB0117
:10081000132C2B08023C031D0800AB01AB0AAC01F2
:10082000AD0AAF0A0800AC0A08002C08033C031DFF
:100830001A2C202C2B080A3C031D0800AB012A2C83
:100840002B08013C031D0800AB01AB0AAC01AD0A4B
:10085000AF0A0800AC0A08002C08033C031D312C29
:10086000372C2B080A3C031D0800AB01412C2B0838
:10087000023C031D0800AB01AB0AAC01AD0AAF0A94
:100880000800AC0A08002C08033C031D482C4E2C21
:100890002B080A3C031D0800AB01582C2B08023C16
:1008A000031D0800AB01AB0AAC01AD0AAF0A08009A
:1008B000AC0A08002C08033C031D5F2C652C2B0898
:1008C0000A3C031D0800AB016F2C2B08023C031DE2
:1008D0000800AB01AB0AAC01AD0AAF0A0800AC0AD4
:1008E00008002C08033C031D762C7C2C2B080A3CAA
:1008F000031D0800AB01862C2B08023C031D0800D9
:10090000AB01AB0AAC01AD0AAF0A0800AC0A0800A3
:100910002C08033C031D8D2C932C2B080A3C031D33
:100920000800AB019D2C2B08023C031D0800AB0105
:10093000AB0AAC01AD0AAF0A0800AC0A08002C08EB
:10094000033C031DA42CAA2C2B080A3C031D080001
:10095000AB01B42C2B08023C031D0800AB01AB0A11
:10096000AC01AD0AAF0A0800AC0A08002E08013C31
:10097000031DBB2CC22C2D080A3C031D0800AD0131
:10098000AF01CC2C2D08033C031D0800AD01AD0ABE
:0C099000AF01AF0AAE010800AE0A08007B
:04400E00D420FF3F7C
:00000001FF
