:02000000002AD4
:10000800A000030EA1000B1D0E280B116430810007
:10001800A70A0E280C1C32280C10EE308E008530F2
:100028008F001628A30A23080A3C031D3228A301BF
:100038001D28A40A2408063C031D3228A4012428EC
:10004800A50A25080A3C031D3228A5012B28A60A63
:100058002608063C031D3228A6013228210E8300FB
:06006800A00E200E0900AD
:100200008A010A1482073F3406345B344F34663463
:0A0210006D347D3407347F346F3401
:10040000031383160F178F120F120F14031783167F
:1004100088018901031383168501071087100711CE
:100420008711880106148614061503138316151404
:100430009514151503138312850187018801A30103
:10044000A401A501A601A2010313831681130313BE
:1004500083128B170B178B168B150B110B100313B5
:1004600083160C14031383120C1003138316161433
:100470009614161503138316811281110114811429
:1004800001110313831264308100031383121014CB
:1004900090101016901603138312EE308E008530E4
:1004A0008F00221C562AA21C662A802AA21C592AC6
:1004B000732A071487100711871123080A128A115B
:1004C00000210A128A11880022148D2A071087142D
:1004D0000711871124080A128A1100210A128A11B1
:1004E000880022108D2A071087100715871125080C
:1004F0000A128A1100210A128A11880022148D2AF8
:10050000071087100711871526080A128A11002183
:100510000A128A11880022108D2A27080A3C031D1E
:060520008D2AA701512AFB
:04400E00D420FF3F7C
:00000001FF
