:02000000002AD4
:10000800A000030EA1000B1C3028061A1228AA0A09
:100018002A08053C031DAA010B1030282A08003CB9
:10002800031D26282A08013C031D28282A08023C0B
:10003800031D2A282A08033C031D2C282A08043CEF
:10004800031D2E280B1030280B1030280B103028D9
:100058000B1030280B1030280B1D36280B11F030F0
:100068008100A70A0C1C72280C10EE308E00853017
:100078008F00A30A23080A3C031D7228A301442801
:10008800A40A2408063C031D7228A4014B28A50ACB
:1000980025080A3C031D7228A5015228A60A26082D
:1000A800063C031D7228A60159282908023C031D95
:1000B8006428A80A28080A3C031D7228A8016B288E
:1000C800A80A2808053C031D7228A8016B28A90A5C
:1000D8002908033C031D7228A9017228210E8300F8
:0600E800A00E200E09002D
:100200008A010A1482073F3406345B344F34663463
:0A0210006D347D3407347F346F3401
:10040000031383160F178F120F120F14031783167F
:1004100088018901031383168501071087100711CE
:10042000871188018901061486140615861506169B
:100430000313831615149514151595151516031326
:1004400083128501870188018901A301A401A50107
:10045000A601A201A701A801A901AA0103138316FD
:100460008113031383160C14031383120C1003134C
:10047000831616149614161596151616031383165E
:100480008112811101148114011103138312F030C0
:10049000810003138312101490101016901603138A
:1004A0008312EE308E0085308F00031383128B177A
:1004B0000B178B168B150B110B102A088900221CA9
:1004C000642AA21C742A8E2AA21C672A812A071475
:1004D00087100711871125080A128A1100210A12B4
:1004E0008A118800A20A9B2A071087140711871116
:1004F00026080A128A1100210A128A118800A20A0B
:100500009B2A071087100715871128080A128A11DD
:1005100000210A128A118800A20A9B2A071087105C
:100520000711871529080A128A1100210A128A1157
:100530008800A2019B2A27080A3C031D9B2AA701C9
:020540005D2A32
:04400E00D420FF3F7C
:00000001FF
