:02000000002AD4
:10000800A000030EA1000B1CE528061E0C281228D0
:10001800AA0A2A08053C0319AA010B102A08031D7D
:1000280016282A282A08013C031D1B282C282A08E0
:10003800023C031D20282E282A08033C031D2528DE
:1000480067282A08043C031DE528A5280B10E52885
:100058000B10E5280B1006183328A80AE52886187F
:100068004A282808003C031D48283A282908003C4B
:10007800031D43280308A8000208A900E528090869
:10008800A800A80AA903E528A803E52806194E2808
:10009800A50AE5288619E5282508003C031D6528DA
:1000A80055282608003C031D60280908A500A50A54
:1000B8000508A600A60AE5280908A500A50AA603BA
:1000C800E528A503E5280B1006186C28AB0AE528D7
:1000D800861885282B08003C031D832873282C08C4
:1000E800003C031D7E280808AB00AB0A0208AC00E0
:1000F800AC0AE5280908AB00AB0AAC03E528AB035A
:10010800E52806198A28AD0AAF0AE5288619E528E0
:100118002D08003C031DA22891282E08003C031D31
:100128009C280208AD000108AE000C08AF00E528C5
:100138000908AD00AD0AAE03AF03E528AD03AF0370
:10014800E5280B100618B1283608013C031DAF2816
:100158000713B603E528B40AE5288618C828340822
:10016800003C031DC628B8283508003C031DC128DB
:100178000308B4000208B500E5280908B400B40A69
:10018800B503E528B403E5280619CC28B20AE52802
:100198008619E5283208003C031DE328D3283308D4
:1001A800003C031DDE280908B200B20A0508B300A6
:1001B800B30AE5280908B200B20AB303E528B20376
:1001C800E5280B1DEC280B11F0308100A70AB70AAF
:1001D8000C1CF4280C10EE308E0085308F00A30A1A
:0A01E800210E8300A00E200E090076
:100200008A010A1482073F3406345B344F34663463
:0A0210006D347D3407347F346F3401
:10040000031383160F178F120F120F14031783167F
:1004100088018901031383168501071087100711CE
:100420008711071287120713880106148614061510
:1004300086150616031383161514951415159515B0
:10044000151603138312850187018801A301A401F6
:10045000A501A601A201A701B701A801A901AA014E
:10046000AB01AB0AAC01AD01AD0AAE01AF01AF0A01
:10047000B801B001B101B201B20AB301B401B501D2
:10048000031383168113031383160C1403138312AF
:100490000C100313831616149614161596151616BB
:1004A00003138316811281110114811401110313A6
:1004B0008312F03081000313831210149010101671
:1004C000901603138312EE308E0085308F000313D5
:1004D00083128B170B178B168B150B110B102A0819
:1004E000031D732A872A2A08013C031D782A8D2AB6
:1004F0002A08023C031D7D2A932A2A08033C031D77
:10050000822A992A2A08043C031DA42A9F2A05143A
:100510008510051185110512A42A051085140511F1
:1005200085110512A42A05108510051585110512DF
:10053000A42A05108510051185150512A42A051099
:1005400085100511851105168F239D23AB23C0232C
:100550004124592467247B242A08031DB02AC42A75
:100560002A08013C031DB52A002B2A08023C031D62
:10057000BA2AC42A2A08033C031DBF2A002B2A08D2
:10058000043C031D782B3C2B221CC92AA21CD92A0F
:10059000F32AA21CCC2AE62A071487100711871118
:1005A00025080A128A1100210A128A118800A20A5B
:1005B000782B071087140711871126080A128A1151
:1005C00000210A128A118800A20A782B07108710CE
:1005D0000715871128080A128A1100210A128A11A8
:1005E0008800A20A782B07108710071187152908A1
:1005F0000A128A1100210A128A118800A201782B9E
:10060000221C052BA21C152B2F2BA21C082B222BE6
:1006100007148710071187112D080A128A1100216B
:100620000A128A118800A20A782B07108714071172
:1006300087112E080A128A1100210A128A118800D5
:10064000A20A782B07108710071587112B080A12AA
:100650008A1100210A128A118800A20A782B071039
:100660008710071187152C080A128A1100210A1217
:100670008A118800A201782B221C412BA21C512B2D
:100680006B2BA21C442B5E2B0714871007118711BC
:1006900032080A128A1100210A128A118800A20A5D
:1006A000782B071087140711871133080A128A1153
:1006B00000210A128A118800A20A782B07108710DD
:1006C0000715871134080A128A1100210A128A11AB
:1006D0008800A20A782B07108710071187153508A4
:1006E0000A128A1100210A128A118800A201782BAD
:1006F0002708043C031D782BA7013708F43C031D91
:100700006F2AB7013808013C031D872B8B2B07127A
:100710008712B80A6F2A07168716B8036F2A2308AC
:100720000A3C031D0800A301A40A2408063C031D7B
:100730000800A401A50A9D23080025080A3C031D02
:100740000800A501A60A2608063C031D0800A6010C
:10075000A80AAB2308002908023C031DB02BB62BC6
:1007600028080A3C031D0800A801BE2B2808043CE9
:10077000031D0800A801A901AB0A0800A90A080086
:100780002F08013C031DC52BFC2B2F08023C031D29
:10079000CA2B132C2F08033C031DCF2BFC2B2F0837
:1007A000043C031DD42B2A2C2F08053C031DD92BF8
:1007B000FC2B2F08063C031DDE2B2A2C2F08073CA0
:1007C000031DE32BFC2B2F08083C031DE82BFC2BFF
:1007D0002F08093C031DED2B2A2C2F080A3C031D72
:1007E000F22BFC2B2F080B3C031DF72B2A2C2F0878
:1007F0000C3C031D0800FC2B2C08033C031D012CA2
:10080000072C2B080A3C031D0800AB01112C2B08F8
:10081000023C031D0800AB01AB0AAC01AD0AAF0AF4
:100820000800AC0A08002C08023C031D182C1E2CE2
:100830002B080A3C031D0800AB01282C2B08093C9F
:10084000031D0800AB01AB0AAC01AD0AAF0A0800FA
:10085000AC0A08002C08033C031D2F2C352C2B0858
:100860000A3C031D0800AB013F2C2B08023C031D72
:100870000800AB01AB0AAC01AD0AAF0A0800AC0A34
:1008800008002E08013C031D462C4D2C2D080A3C67
:10089000031D0800AD01AF01572C2D08033C031DBB
:1008A0000800AD01AD0AAF01AF0AAE010800AE0A03
:1008B000080032080A3C031D0800B201B30A3308DD
:1008C000063C031D0800B301B40A6724080035087C
:1008D000023C031D6C2C722C34080A3C031D0800DA
:1008E000B401792C3408043C031D0800B401B5019F
:1008F0000800B50A08002308303C031DEC28240832
:10090000313C031D08002508323C031D6F2A2608D0
:10091000333C031D08002808343C031D0800290847
:0C092000353C031D6F2A0717B60A0800BB
:04400E00D420FF3F7C
:00000001FF
