:02000000002AD4
:10000800A000030EA1000B1C4328061E0C28122872
:10001800AA0A2A08053C0319AA010B102A08031D7D
:1000280016282A282A08013C031D1B282C282A08E0
:10003800023C031D20282E282A08033C031D2528DE
:100048003F282A08043C031D432841280B10432855
:100058000B1043280B1006183328A80A43288618C3
:100068003728A803432806193B28A50A43288619D8
:100078004328A50343280B1043280B1043280B1DC6
:1000880049280B11F0308100A70A0C1C51280C10CC
:10009800EE308E0085308F00A30A210E8300A00E5B
:0400A800200E09001D
:100200008A010A1482073F3406345B344F34663463
:0A0210006D347D3407347F346F3401
:10040000031383160F178F120F120F14031783167F
:1004100088018901031383168501071087100711CE
:10042000871188018901061486140615861506169B
:100430000313831615149514151595151516031326
:1004400083128501870188018901A301A401A50107
:10045000A601A201A701A801A901AA0103138316FD
:100460008113031383160C14031383120C1003134C
:10047000831616149614161596151616031383165E
:100480008112811101148114011103138312F030C0
:10049000810003138312101490101016901603138A
:1004A0008312EE308E0085308F00031383128B177A
:1004B0000B178B168B150B110B102A08031D612AC5
:1004C000752A2A08013C031D662A7B2A2A08023C59
:1004D000031D6B2A812A2A08033C031D702A872AE0
:1004E0002A08043C031D922A8D2A05148510051143
:1004F00085110512922A0510851405118511051222
:10050000922A05108510051585110512922A0510ED
:100510008510051185150512922A05108510051103
:1005200085110516D722E522F322221C9A2AA21C45
:10053000AA2AC42AA21C9D2AB72A071487100711C9
:10054000871125080A128A1100210A128A118800CF
:10055000A20AD12A071087140711871126080A1248
:100560008A1100210A128A118800A20AD12A0710D2
:1005700087100715871128080A128A1100210A120C
:100580008A118800A20AD12A07108710071187153F
:1005900029080A128A1100210A128A118800A20170
:1005A000D12A27080A3C031DD12AA7015D2A230866
:1005B0000A3C031D0800A301A40A2408063C031DED
:1005C0000800A401A50AE522080025080A3C031D2D
:1005D0000800A501A60A2608063C031D0800A6017E
:1005E000A80AF32208002908023C031DF82AFE2A63
:1005F00028080A3C031D0800A801052B2808043C14
:0E060000031D0800A801A9010800A90A0800AE
:04400E00D420FF3F7C
:00000001FF
