:02000000002AD4
:10000800A000030EA1000B1C5228061E0C28122863
:10001800AA0A2A08053C0319AA010B102A08031D7D
:1000280016282A282A08013C031D1B282C282A08E0
:10003800023C031D20282E282A08033C031D2528DE
:100048003F282A08043C031D522850280B10522828
:100058000B1052280B1006183328A80A52288618A5
:100068003728A803522806193B28A50A52288619BA
:100078005228A50352280B1006184428AB0A522808
:1000880086184828AB03522806194C28AD0A52286E
:1000980086195228AD0352280B1052280B1D5828D8
:1000A8000B11F0308100A70A0C1C60280C10EE30F0
:1000B8008E0085308F00A30A210E8300A00E200E2B
:0200C80009002D
:100200008A010A1482073F3406345B344F34663463
:0A0210006D347D3407347F346F3401
:10040000031383160F178F120F120F14031783167F
:1004100088018901031383168501071087100711CE
:10042000871188018901061486140615861506169B
:100430000313831615149514151595151516031326
:1004400083128501870188018901A301A401A50107
:10045000A601A201A701A801A901AA01AB01AC0153
:10046000AD01AE01AF01031383168113031383168D
:100470000C14031383120C10031383161614961412
:100480001615961516160313831681128111011481
:100490008114011103138312F030810003138312BE
:1004A000101490101016901603138312EE308E0065
:1004B00085308F00031383128B170B178B168B1548
:1004C0000B110B102A08031D662A7A2A2A08013C00
:1004D000031D6B2A802A2A08023C031D702A862AE3
:1004E0002A08033C031D752A8C2A2A08043C031D94
:1004F000972A922A05148510051185110512972A4D
:1005000005108514051185110512972A051085100F
:10051000051585110512972A0510851005118515F9
:100520000512972A0510851005118511051632232D
:1005300040234E2363239A242A08031DA02AB42AA9
:100540002A08013C031DA52AF02A2A08023C031DA3
:10055000AA2AB42A2A08033C031DAF2AF02A2A0833
:10056000043C031D2C2BB42A221CB92AA21CC92A24
:10057000E32AA21CBC2AD62A071487100711871168
:1005800025080A128A1100210A128A118800A20A7B
:100590002C2B071087140711871126080A128A11BD
:1005A00000210A128A118800A20A2C2B071087103A
:1005B0000715871128080A128A1100210A128A11C8
:1005C0008800A20A2C2B071087100711871529080D
:1005D0000A128A1100210A128A118800A2012C2B0A
:1005E000221CF52AA21C052B1F2BA21CF82A122B59
:1005F00007148710071187112D080A128A1100218C
:100600000A128A118800A20A2C2B071087140711DE
:1006100087112E080A128A1100210A128A118800F5
:10062000A20A2C2B07108710071587112B080A1216
:100630008A1100210A128A118800A20A2C2B0710A5
:100640008710071187152C080A128A1100210A1237
:100650008A118800A2012C2B27080A3C031D2C2B91
:10066000A701622A23080A3C031D0800A301A40A6B
:100670002408063C031D0800A401A50A4023080025
:1006800025080A3C031D0800A501A60A2608063C09
:10069000031D0800A601A80A4E2308002908023CF1
:1006A000031D532B592B28080A3C031D0800A801E1
:1006B000612B2808043C031D0800A801A901AB0A0E
:1006C0000800A90A08002F08031D672B9E2B2F087E
:1006D000013C031D6C2BB32B2F08023C031D712B17
:1006E000C82B2F08033C031D762BDD2B2F08043C61
:1006F000031D7B2BF22B2F08053C031D802B072CA1
:100700002F08063C031D852B1C2C2F08073C031DBE
:100710008A2B312C2F08083C031D8F2B462C2F08C9
:10072000093C031D942B5B2C2F080A3C031D992BBD
:10073000702C2F080B3C031D0800852C2C08033C53
:10074000031DA32BA92B2B080A3C031D0800AB019A
:10075000B12B2B08023C031D0800AB01AC01AD0A14
:100760000800AC0A08002C08023C031DB82BBE2B65
:100770002B080A3C031D0800AB01C62B2B08093CC3
:10078000031D0800AB01AC01AD0A0800AC0A08006B
:100790002C08033C031DCD2BD32B2B080A3C031D37
:1007A0000800AB01DB2B2808023C031D0800AB014D
:1007B000AC01AD0A0800AC0A08002C08033C031D7C
:1007C000E22BE82B2B080A3C031D0800AB01F02BA1
:1007D0002808013C031D0800AB01AC01AD0A08006C
:1007E000AC0A08002C08033C031DF72BFD2B2B083B
:1007F0000A3C031D0800AB01052C2808023C031D20
:100800000800AB01AC01AD0A0800AC0A08002C08D6
:10081000033C031D0C2C122C2B080A3C031D080062
:10082000AB011A2C2808013C031D0800AB01AC01E8
:10083000AD0A0800AC0A08002C08033C031D212C5B
:10084000272C2B080A3C031D0800AB012F2C28087D
:10085000023C031D0800AB01AC01AD0A0800AC0A64
:1008600008002C08033C031D362C3C2C2B080A3CAA
:10087000031D0800AB01442C2808023C031D08009E
:10088000AB01AC01AD0A0800AC0A08002C08033C1F
:10089000031D4B2C512C2B080A3C031D0800AB01F7
:1008A000592C2808023C031D0800AB01AC01AD0A1D
:1008B0000800AC0A08002C08033C031D602C662CC1
:1008C0002B080A3C031D0800AB016E2C2808023CD3
:1008D000031D0800AB01AC01AD0A0800AC0A08001A
:1008E0002C08033C031D752C7B2C2B080A3C031D94
:1008F0000800AB01832C2808023C031D0800AB0153
:10090000AC01AD0A0800AC0A08002C08033C031D2A
:100910008A2C902C2B080A3C031D0800AB01982C54
:100920002808023C031D0800AB01AC01AD0A080019
:10093000AC0A08002E08013C031D9F2CA52C2D0895
:100940000A3C031D0800AD01AC2C2D08033C031D1F
:0C0950000800AD01AE010800AE0A08006E
:04400E00D420FF3F7C
:00000001FF
